:100000000C9434000C943E000C943E000C943E0082
:100010000C943E000C943E000C943E000C943E0068
:100020000C943E000C943E000C943E000C943E0058
:100030000C943E000C943E000C943E000C943E0048
:100040000C943E000C943E000C943E000C943E0038
:100050000C943E000C943E000C943E000C943E0028
:100060000C943E000C943E0011241FBECFEFD8E04C
:10007000DEBFCDBF0E9489000C949C000C94000050
:10008000ECE7F0E080818F778083808180648083DB
:1000900080818E7F808380818D7F808380818B7F34
:1000A00080838081877F8083EAE7F0E080818160C0
:1000B000808380818260808380818460808380816E
:1000C000806880830895ECE7F0E090819E7F9083C4
:1000D00090819D7F908390819B7F90839081977F7B
:1000E00090839081982B9083089580917A0080640A
:1000F00080937A0080917A0084FFFCCF80917A000F
:10010000806180937A002091780030917900C90154
:100110000895CF93DF930E94400080E00E94630027
:10012000C0E9D1E00E94750088EE93E0FE013197AE
:0C013000F1F70197D9F7F6CFF894FFCF54
:00000001FF
